:02000002F0000C
:10400000000004204DB50F0075B50F0077B50F0007
:1040100079B50F007BB50F007DB50F0000000000E3
:10402000000000000000000000000000C5450F0077
:1040300081B50F000000000083B50F00494D0F004F
:10404000B5500F0087B50F0087B50F0087B50F007B
:1040500087B50F0087B50F0087B50F0087B50F0034
:1040600087B50F0087B50F0087B50F0087B50F0024
:1040700087B50F0087B50F0087B50F0087B50F0014
:1040800087B50F000D750F0087B50F0087B50F00BE
:10409000C9750F0087B50F00954B0F0087B50F004E
:1040A00087B50F0087B50F0087B50F0087B50F00E4
:1040B00087B50F0087B50F0000000000000000006A
:1040C00087B50F0087B50F0087B50F0087B50F00C4
:1040D00087B50F0087B50F0087B50F008D870F00DC
:1040E00087B50F0087B50F0087B50F0000000000EF
:1040F0000000000087B50F000000000087B50F002A
:1041000000000000000000000000000000000000AF
:10411000000000000000000000000000000000009F
:10412000000000000000000000000000000000008F
:10413000000000000000000000000000000000007F
:10414000000000000000000000000000000000006F
:10415000000000000000000000000000000000005F
:10416000000000000000000000000000000000004F
:10417000000000000000000000000000000000003F
:10418000000000000000000000000000000000002F
:10419000000000000000000000000000000000001F
:1041A000000000000000000000000000000000000F
:1041B00000000000000000000000000000000000FF
:1041C00000000000000000000000000000000000EF
:1041D00000000000000000000000000000000000DF
:1041E00000000000000000000000000000000000CF
:1041F00000000000000000000000000000000000BF
:1042000010B5054C237833B9044B13B10448AFF310
:1042100000800123237010BDC48600200000000030
:1042200034BC0F0008B5034B1BB103490348AFF37F
:10423000008008BD00000000C886002034BC0F00CC
:10424000A3F5803A704700BF174B002B08BF134BF4
:104250009D46FFF7F5FF00218B460F461348144A91
:10426000121A00F05FF80E4B002B00D098470D4B50
:10427000002B00D098470020002104000D000D48BD
:10428000002802D00C4800F00FF900F027F82000B9
:10429000290000F097FA00F011F800BF00000800B4
:1042A000000000000000000000000420C486002080
:1042B000DCCE0020A9440F00B5440F0008B5002152
:1042C000044600F08BF8044B1868C36B03B19847A1
:1042D000204600F04FF900BFCCB90F0070B50D4E6D
:1042E0000D4D761BB61006D0002455F8043B013462
:1042F0009847A642F9D1094E094D761B07F05AFBA3
:10430000B61006D0002455F8043B01349847A64265
:10431000F9D170BDB8860020B8860020C086002084
:10432000B8860020830730B548D0541E002A3FD0FD
:10433000CAB2034601E0013C3AD303F8012B9D07C2
:10434000F9D1032C2DD9CDB245EA05250F2C45EA2C
:10435000054536D9A4F1100222F00F0C03F1200E0E
:10436000E6444FEA121C03F1100242E9045542E907
:10437000025510327245F8D10CF1010214F00C0F05
:1043800003EB021204F00F0C13D0ACF1040323F082
:1043900003030433134442F8045B9342FBD10CF053
:1043A00003042CB1CAB21C4403F8012B9C42FBD17C
:1043B00030BD64461346002CF4D1F9E70346144699
:1043C000BFE71A46A446E0E7024B13B1024800F0EB
:1043D0006BB8704700000000B5440F002DE9F84F9E
:1043E0002F4B2DED028B834618680F4600F078F8AE
:1043F0002C4BD3F80080D8F84861AEB108EE10BA63
:104400004FF001094FF0000A7468651E0CD40134A6
:1044100006EB840487B1D4F80031BB420CD0013DD7
:104420006B1CA4F10404F5D1BDEC028B1C4B186885
:10443000BDE8F84F00F056B873682268013BAB4204
:104440000CBF7560C4F800A0002AE8D0D6F8880137
:10445000D6F804B009FA05F101420BD19047726811
:104460005A4513D1D8F84831B342D8D01E46002E51
:10447000CAD1D9E7D6F88C0101420CD1D4F880100A
:1044800018EE100A904772685A45EBD0D8F8486188
:10449000002EB9D1C8E7D4F880009047DFE700BF0D
:1044A00028840020CCB90F00002301461A46184684
:1044B00000F01AB838B5084B084D5B1B9C1007D0AC
:1044C000043B1D44013C55F804399847002CF9D1B0
:1044D000BDE8384007F074BAC4860020C0860020CA
:1044E000704700BF704700BF2DE9F047DFF880A09C
:1044F0000646DAF8000098460F469146FFF7F0FFAF
:104500001A4B1B68D3F8484124B365681F2D26DC7D
:104510005EB96B1C0235DAF80000636044F8257060
:10452000FFF7E0FF0020BDE8F08704EB85010123E1
:10453000C1F88890D4F88821AB401A43022EC4F801
:104540008821C1F80881E4D1D4F88C211343C4F840
:104550008C31DEE703F5A674C3F84841D5E7DAF8F5
:104560000000FFF7BFFF4FF0FF30DCE7CCB90F00D2
:1045700028840020FEE700BF38B50C46E8B909687A
:10458000C9B10F4DA9420BD06B1A3B2B11D93C225C
:10459000284607F009F803E0CA5CEA54013BFBD265
:1045A000074800223C2103F015FB0023A887236065
:1045B00038BD3D23F2E70E23F9E70123F7E700BFFB
:1045C000807F0020074A6FF002039E4502D1EFF37F
:1045D000098101E0EFF308818869A0F10200007809
:1045E000104700BF79450F0038B50446A8B10D4DFE
:1045F00000223C21284603F0EDFAAB8F83420ED116
:104600002A4605F13C0152F8040B44F8040B8A4297
:10461000F9D10133AB87002038BD0E20FCE70B2019
:10462000FAE700BF807F00200B2970B504461546CD
:1046300008462FD92389053304EB43012044431A4C
:10464000DAB2012A26D9814224D8134806F0ACFFF9
:104650002388522B06D1AB0711D062884CF66863D1
:104660009A420CD00F2014E034F8022B824204D07E
:10467000AE89964203F1010308D1002009E02189A7
:1046800000230A344FF6FE704FF440559942EBD8A0
:104690000B2070BD0920FCE7E186002008B5002250
:1046A00003F098FA034B1B88834214BF0B200020B1
:1046B00008BD00BFE186002038B50C4C21684B1CBA
:1046C000054612D00A484FF4805206F05DFF48B10B
:1046D00015B1206800F04AFD054920684FF480625A
:1046E00000F064FD4FF0FF33236038BD2C840020C0
:1046F000EC8600202DE9F041DFF84480044624F4E4
:104700007F651846D8F8003025F00F05AB420E46FD
:10471000174609D0FFF7D0FF0848C8F800504FF4FB
:104720008052294606F040FF0448C4F30B043A4681
:1047300031462044BDE8F04106F036BFEC8600204B
:104740002C840020BFF34F8F0549064BCA6802F442
:10475000E0621343CB60BFF34F8F00BFFDE700BFA4
:1047600000ED00E00400FA054BDF704710DF7047F2
:1047700011DF704713DF704718DF704760DF704745
:1047800069DF704761DF70471FB50023CDE9013352
:104790000393684602230093FFF7EEFF05B05DF830
:1047A00004FB08B54FF0E023D3F8F03DDB0700D55C
:1047B00000BEFFF7C7FF0000014B1878704700BF2D
:1047C000ED9600202DE9FF484C4B4FF44072C3F8A2
:1047D000402500F0E3FA00F05FFF002000F07CFBD2
:1047E00000F0DAFF48B1052000F076FB00F0E6FFAC
:1047F00001F00AF8062000F06FFB4FF08043DFF86D
:104800001081D3F81C55B12D0CBF0123002388F86B
:1048100000304AD0A5F1A8014C424C41384EDFF897
:10482000F49004F0010333704FF08043D3F8007428
:1048300007F00107002C3BD14E2D38D0572D36D034
:10484000304B1B681A68304B9A4200D17FBB6D2DEC
:104850002ED0222000F0B8F9044633789BBB2220EA
:1048600000F0B2F910B10A2000F0AEF900F001003A
:10487000307000F043FEDFF8A0B0824630B12CB9B2
:10488000204B1B681A68214B9A4257D04FF4405373
:104890005A684A450ABF9B684FF4905303F500736A
:1048A0001B685B453AD1012448E00124B6E70124A6
:1048B0004FF0804300226D2DC3F81C2500F0E880E6
:1048C000002CCAD1C5E70120D0E7544636E03C466B
:1048D00034E04FF480030B6075E0022000F0FCFA36
:1048E000A5F14E035842584103F054FFB2E00022B4
:1048F0001146C5E003F09EFFCAE000BF00A00040E3
:10490000ED96002030840020D51A5A007E67E54ECF
:10491000EE960020DBE5B1517CB0EE87002CC2D1D1
:10492000BAF1000FD1D0002FD1D0674B674A1B6876
:1049300067481A60674B43F0010398474FF44053B0
:104940005A684A4508BF9B685F4A0CBF03F500736D
:104950004FF4905312681B685B450CBF5E4B0023FD
:1049600013601CB9BAF1000F40F092803378002B2D
:10497000B3D0082000F0B0FA98F800300BB9FFF778
:1049800003FF01234FF4742088F80030FFF7F2FE94
:10499000524B534A18680190524901A8FFF7E6FEAE
:1049A00008B103F0CFF8504991F816335A09EC23B7
:1049B0001341DA0707D54D4B9A68002A89D01A6847
:1049C00042F480021A600C22494B029300210DEB45
:1049D0000200FFF7A7FC40F20113029A039303A918
:1049E0004020FFF7CDFE0C2200210DEB0200FFF767
:1049F00099FC9DF80C30029A43F0010303A9A02012
:104A00008DF80C30FFF7BCFE0C2200210DEB0200EC
:104A1000FFF788FC0124F723029AADF80E3003A9B2
:104A200023208DF80C40FFF7ABFE0C2200210DEB8C
:104A30000200FFF777FC0623029A8DF80C4003A9C9
:104A400020208DF80E40ADF81030FFF799FE02A837
:104A5000FFF794FE4FF4405330785A684A450ABF36
:104A60009B684FF4905303F500731B685B4504D0BB
:104A7000572D02D04E2D7FF43AAF012240F6B831C7
:104A800000F022FE3378002B3FF434AFFFF770FEC6
:104A900000F094FA00F032FDA0B100F07DFE88B97C
:104AA0004FF440535B684B4506D198F800300BB982
:104AB000FFF76AFEFFF75CFE034B1B6800221A60DB
:104AC00000F03EFEFFF73EFE30840020D51A5A006B
:104AD0000048E80100BA0F007E67E54EF8B90F0004
:104AE000D0B90F00A3470F0000E100E0789D00203F
:104AF0000080002010B5FEB04FF4FA73ADF802301C
:104B00000DF10201002301A8ADF80430FFF73AFED1
:104B1000044640B9BDF80430102B07D0112B0CD03F
:104B200001A801F003F920467EB010BD054B01221B
:104B30001A70072000F0D0F9F2E7024B1870082035
:104B4000F8E700BFEC96002013B5002301A80193FD
:104B5000FFF70AFE044660B9019802F08DFB019B45
:104B60000A2B09D0092B09D00B2B02D1012004F00C
:104B7000D1FC204602B010BD2046F8E70220F6E73F
:104B800008B5FFF7B7FF0528FBD1FFF7DDFF0528C4
:104B9000F7D108BD0021024A084602F03DBF00BF20
:104BA000814B0F001F2884BF00F01F00044B054AF3
:104BB00098BF4FF0A04300F5E07043F82020704705
:104BC000000300500C0003001F288ABF064B4FF063
:104BD000A04300F01F00D3F8103523FA00F0C043C3
:104BE00000F00100704700BF000300507047002331
:104BF0004FF0FF328360C0F80035C0F86025C0F880
:104C00006425C0F86825C0F86C2540F2FF32C0F872
:104C10000435C0F80825C0F80C35C0F81035C0F8C8
:104C20001435C0F82035C0F8243570471B4B0022DE
:104C30001F2930B5C3F800258BBF01F01F030B46B9
:104C4000174A4FF0A04203F5E074032542F82450C0
:104C5000012404FA03F3C2F80C3500F5AC700F4BD5
:104C6000002243F82010FF21C3F804250220C3F8D6
:104C700008150421C3F80C15C3F810050948C3F83A
:104C80001425C3F82005C3F82415C3F82825C3F854
:104C90002C25C3F80045C3F8102130BD00C00140E9
:104CA00000030050E49800200148FFF7A0BF00BFB8
:104CB00000C00140074B23F81010074B002282B0C0
:104CC000C3F81021D3F810210192019A01229A60B1
:104CD00002B07047E498002000C0014010B5174BA7
:104CE0001C68174B1B68B4FBF3F103FB1141B1EBDC
:104CF000530F88BF591A5A084F235943B1FBF2F199
:104D0000C1F1FF0189B20020FFF7D4FF0D4B1B68F2
:104D1000B4FBF3F103FB1144B4EB530F4FEA53011F
:104D200088BF1C1B8F235C43B4FBF1F1C1F1FF0171
:104D3000BDE8104089B20120FFF7BCBFE098002019
:104D40002099002028990020024A1368013313603B
:104D5000FFF7C4BFE09800200F4B00221421C3F8D6
:104D60000C25C3F80425C3F80815C3F81425C3F8A7
:104D70001025C3F82825C3F82C251022C3F8602578
:104D80004FF0FF32C3F86425C3F86825C3F86C25DB
:104D90000122C3F8002570470010024038B54FF0DB
:104DA000804301240025DC602220C3F818559C6054
:104DB000FFF7F8FE0A20FFF7F5FE194B4FF4C85035
:104DC000234398472F212846FFF730FF2A2120460A
:104DD000FFF72CFFFFF7C0FFFFF708FF114A1E2166
:104DE000082002F0F5FD08B102F0ACFE02F056FD1D
:104DF0000D490E4BE02081F823001B684FF47A72B6
:104E0000B3FBF2F3013BB3F1807F08D24FF0E02215
:104E10005361002381F8230093610723136138BD98
:104E200010BA0F00F096002000ED00E0348400205E
:104E3000F0B585B043788DF8043083788DF805306F
:104E4000037823488DF8063001AD082248F20D069C
:104E500048F20607A2F1080315F801CB9BB28024A3
:104E60001CEA040F14BF3146394620F81310591CB0
:104E700089B28A424FEA540427D1083292B2202ADA
:104E8000E8D102339BB24FF4004220F8112020F801
:104E90001320104B1A22C3F82005C3F82425002242
:104EA000C3F81021D3F810210292029A01229A60CD
:104EB000D3F81021002AFBD00022C3F81021D3F828
:104EC00010310393039B05B0F0BD0B46C8E700BF4C
:104ED000EC9800200010024013B5234900230C6811
:104EE0000094019308281AD8DFE800F00C050C198B
:104EF000191308292D004FF47F4300931B4B40F6F4
:104F0000B8320BE04FF47F030093184B4FF49672C6
:104F100004E04FF47F030193144B64221A60009B5A
:104F20001348019A0340009392B10240114B019241
:104F300001221A7001A8FFF77BFF02B010BDFF230A
:104F400000930D4BDBE74FF0FF1300930A4BDDE7B7
:104F50009C4202D00B606846EDE7064B1B78002BA5
:104F6000EBD00148E7E700BF2499002020990020FA
:104F7000040404002C9900202899002013B50C4B40
:104F80000C4C1A889B78ADF804208DF8063044F05C
:104F900001044FF44860A04701A8FFF749FF4FF410
:104FA0004860A0470448FFF722FE02B010BD00BFD2
:104FB00006BA0F0010BA0F00001002404FF0E023B5
:104FC00010B500241C61FFF76FFEFFF7D7FF144BED
:104FD0004FF40032C3F8802003F1C04303F53C5383
:104FE0004FF48032C3F84823C3F8082301225A60E3
:104FF0009A604FF080430220DA602346094C1F2B51
:105000001A46C6BF03F01F0221464FF0A04102F529
:10501000E0720133302B41F82200F0D110BD00BF07
:1050200000E100E00003005000F1804382B01A6804
:10503000002A14BF0120002004D000221A601B683F
:105040000193019B02B070470F4A1378D3B90378DC
:105050004FF08041C3F34003C1F88035037803F07B
:105060000103C1F87835094B1968C90706D4E02156
:1050700083F800130121C3F880111960012304484B
:1050800013707047034870473C99002000E100E02E
:105090000000AD0B0C00AD0B014B02681A607047AD
:1050A000389900204FF080434FF46072C3F8042316
:1050B0007047000010B54FF08043D3F804436207F7
:1050C00007D54FF48470FFF7AFFF10B11E4B1B687C
:1050D0009847A30608D54FF48A70FFF7A5FF18B1CB
:1050E0001A4B00201B689847600608D54FF48C7057
:1050F000FFF79AFF18B1154B01201B68984721064E
:1051000008D54FF48E70FFF78FFF18B1104B0020B9
:105110001B689847E20508D54FF49070FFF784FFAD
:1051200018B10B4B01201B689847A3050AD54FF413
:105130009270FFF779FF28B1054BBDE810401B685E
:105140000220184710BD00BF30990020349900207C
:1051500038990020044AD2F80034DB07FBD50160FF
:10516000BFF35F8F704700BF00E001404FF08053F6
:105170001A69B0FBF2F302FB130373B9084B022266
:10518000C3F80425C3F80805D3F80024D207FBD5DB
:1051900000220448C3F8042570470348704700BF45
:1051A00000E001400000AD0B0A00AD0BF8B50B4B61
:1051B0001546012206460F46C3F804250024A542E1
:1051C00004D1064B0022C3F80425F8BD57F824107B
:1051D00006EB8400FFF7BEFF0134F0E700E001407A
:1051E000BFF34F8F0549064BCA6802F4E0621343D0
:1051F000CB60BFF34F8F00BFFDE700BF00ED00E0C5
:105200000400FA054FF08053D3F83021082A06D164
:10521000D3F83431032B02D8024AD05C7047002007
:10522000704700BF16BA0F0008B54FF08053D3F88F
:105230003021082A4ED14FF080420021C2F80C11D3
:10524000C2F81011C2F8381502F54042D3F8041420
:10525000C2F82015D3F80814C2F82415D3F80C149A
:10526000C2F82815D3F81014C2F82C15D3F814146A
:10527000C2F83015D3F81814C2F83415D3F81C143A
:10528000C2F84015D3F82014C2F84415D3F82414FA
:10529000C2F84815D3F82814C2F84C15D3F82C14CA
:1052A000C2F85015D3F83014C2F85415D3F834149A
:1052B000C2F86015D3F83814C2F86415D3F83C145A
:1052C000C2F86815D3F84014C2F86C15D3F844340A
:1052D000C2F87035FFF796FF18B1494B494AC3F839
:1052E0008C26FFF78FFF18B1474BFB22C3F8182518
:1052F000FFF788FF70B14FF080414FF08053D1F835
:10530000E42ED3F8583222F00F0203F00F031343B8
:10531000C1F8E43EFFF776FF20B13C4B4FF400723A
:10532000C3F840264FF08053D3F83031082B09D111
:105330004FF08043D3F80024D10744BF6FF001023F
:10534000C3F80024324AD2F8883043F47003C2F81C
:105350008830BFF34F8FBFF36F8F4FF01023D3F818
:105360000C22D2071DD52B4B0122C3F80425D3F8FC
:105370000024002AFBD04FF01022D2F80C3223F088
:105380000103C2F80C32234BD3F80024002AFBD0CF
:105390000022C3F80425D3F80024002AFBD0FFF72D
:1053A0001FFFD3F80022002A03DBD3F80432002BBE
:1053B00022DA184B0122C3F80425D3F80024002A6E
:1053C000FBD04FF010221221C2F80012D3F80024B3
:1053D000002AFBD04FF010231222C3F804220D4BF9
:1053E000D3F80024002AFBD00022C3F80425D3F808
:1053F0000024002AFBD0D2E7074B084A1A6008BDF8
:10540000005000404881030000F00040009002403E
:1054100000ED00E000E00140348400200090D00363
:1054200013DF704718DF7047064B1878012803D147
:10543000012904BF0221197012B1104602F082BB8B
:10544000704700BF6D99002008B5FFF7B5F988B126
:1054500011481C2101F09CFF08B102F073FB0F49B9
:105460000D4800231C2201F083FF98B1BDE80840DD
:1054700002F068BB4FF47F20FFF778FE0722074950
:105480004FF47F20FFF792FE054B1A78012A04BFE4
:1054900002221A7008BD00BF649900207099002094
:1054A0006D99002070B5124C124D134ED4F8003493
:1054B0007BB1C4F80056C4F80456C4F80856C4F8C2
:1054C0000C56C4F81056C4F81456C4F81856C4F84C
:1054D0001C5602F009FB05F0F4FF20B104F0DAFDE0
:1054E000002005F003FA3378023B022BDED870BDB2
:1054F000000001403546526E6D99002013B54FF4FF
:105500004053124A596891420CBF9C684FF4805432
:1055100001A800F0A7F92368013302D163680133C1
:1055200011D0019B1A88012A0DD1588820B19968A1
:105530000022204602F04EFB019B5B881B1A58425A
:10554000584102B010BD0020FBE700BFDBE5B151C0
:1055500084B02DE9F34108AC84E80F009DF82040A9
:10556000BDF8228001A80F4616461D4600F07AF9C4
:1055700054B9384B0122FF21A3F802809D601A80A4
:105580009980354B1A7012E0012C17D1314BBA19A2
:105590002A449A60A5221A80FF229A800C9AA3F8C6
:1055A0000280C3E903765D619A612B4B1C70FFF7A3
:1055B0004BFF02B0BDE8F04104B07047032C0FD19F
:1055C000019A244B11881980518892689A60C3E926
:1055D0000376AA2259809A805D611F4B0122D1E790
:1055E000022C15D1019A1B4B1188A5290AD1002242
:1055F0009A60FF221A60FF229A800022C3E90322E8
:105600005A61EAE719805188926859809A60F2E7F6
:10561000052C0ED1FFF7D0F840B100F09BFD08B18A
:1056200002F090FA0C4B03221A70C2E700F010FA55
:10563000F5E7042C08D1074B00229A60FF221A607C
:10564000019A92889A80B2E7062CB2D1024B0422CA
:10565000EAE700BF709900206D99002000B50C4B5F
:105660001B7889B063B90B4B1B786BB905238DF898
:105670000C30079B009303AB0FCBFFF769FF03E0F0
:1056800004F000FB0028EED009B05DF804FB00BF79
:105690006C990020609900201FB50023CDE90233EA
:1056A000074B019301F034FE30B906494FF47F23D4
:1056B00001A84B6001F04AFE05B05DF804FB00BF95
:1056C00029540F006499002070B505460E460AB1B2
:1056D00080F00102154B02F001021A7000F0B4FFD5
:1056E000044628B935B100F08BFC0446FFF7DAFE1A
:1056F000204670BDBEB10E4B0E4A0F481D702946A4
:1057000002F0FCF84FF400444FF4FA7029464FF4CD
:105710007A720023E6FB040105F0CAFF2A4601461F
:10572000064802F0FDF800F06FF9DEE76C99002002
:10573000609900205D560F001CBA0F0040990020B0
:105740001FB5134B4FF0FF32C3F88020C3F8802100
:105750004FF440530F4A596891420DD19C6820463E
:10576000FFF75EFE10B14FF000531C60204604B0FE
:10577000BDE8104000F09AB80023CDE902334FF4A1
:10578000805406236846CDE90034FFF74BFEE9E775
:1057900000E100E0DBE5B15107B501A800F062F8D7
:1057A000019B1A88A52A07D09888A0F1AA0358421D
:1057B000584103B05DF804FB0120FAE710B501F091
:1057C00061F9A8B10E4B0F4843F00103984701F06F
:1057D000C3F808B102F0B6F901F054F908B102F0CB
:1057E000B1F901F005F9044638B102F0ABF904E073
:1057F00001F022F904460028E4D1204610BD00BF84
:1058000020BA0F0000A8610000B589B003AB1422D4
:1058100000211846FEF786FD02228DF80C2000229A
:1058200000920FC8FFF794FEFFF73CFE002009B07E
:105830005DF804FB13B5044601A800F013F8019BC2
:105840001A8822805A8862809A68A2609A88A28008
:10585000DA68E2601A6922615A6962619B69A36130
:1058600002B010BD014B0360704700BF00F00F0095
:10587000F0B50346186880F308885868FF2464B2BE
:10588000EFF30585002D01D1A646004725460646C3
:1058900021273FBAF0B40024002500260027F0B4E9
:1058A000F92040B2004700BFF0BD00BFFFF7E0BFE6
:1058B00073B500230DF1020101A8ADF80230019388
:1058C00002F0C8FDF8B9019C25785DB3174B93F839
:1058D0003020032A28D00C2606FB00F29958E9B99B
:1058E00098189D5093F830200132D2B283F83020BE
:1058F000BDF802300E4A9B08013B043443608460CB
:10590000084602F089F8019B33B128B1184602F02D
:10591000BDFD08B102F016F902B070BD01300428D7
:10592000DAD1F0E70720EEE70420ECE78C990020BD
:1059300079590F00084609B102F004B97047000018
:1059400010B50C220B4B504319181A5882B193F81A
:1059500030208C68013AD2B283F8302000221A50ED
:10596000C1E90122201F02F091FD08B102F0EAF81E
:10597000002010BD8C990020214B70B50122214ED2
:105980001A7096F8303003B970BD1E4C002523689C
:1059900083B1013B042B07D8DFE803F01C06120398
:1059A0002800204600F0E2FEE8B2FFF7C9FF08B188
:1059B00002F0C8F80135042D04F10C04E7D1E0E74A
:1059C000A3686360204600F077FE0028ECD002F068
:1059D000B9F8E9E7204600F057FF00F033FF08B1BF
:1059E00002F0B0F80520FFF777FADDE700F078FF66
:1059F00000F096FFBDE870400620FFF76DBA00BFCB
:105A0000609900208C99002008B50E4B002283F885
:105A1000302004210139C3E901221A6003F10C038B
:105A2000F8D1094800F042FE02F0ACFC08B102F0E7
:105A300089F8064802F092FC08B102F083F80020D1
:105A400008BD00BF8C99002035590F00B1580F00D8
:105A500008B50020FFF774FF0120FFF771FF022057
:105A6000FFF76EFF0320FFF76BFFBDE8084002F071
:105A7000D1BC006870476CDF70476DDF70476EDF28
:105A800070476FDF704772DF704773DF704774DFF6
:105A9000704776DF704777DF70477ADF70477CDFCB
:105AA00070477FDF704786DF70478FDF704790DF7A
:105AB0007047AFDF7047B0DF7047B1DF7047B2DFCC
:105AC0007047B5DF704764DF704766DF70470C28AA
:105AD00013D8DFE800F01412121212120912071282
:105AE000120D0B00022070470320704704207047FE
:105AF000042914BF062005207047062070470120A6
:105B0000704702F01FB810B5044608460321FFF79E
:105B1000DEFF0246204601F079F918B1BDE81040D9
:105B200002F010B810BD00000346032B10B5084664
:105B3000144620D0042B23D169B1124B18884FF69C
:105B4000FF7398421CD01321FFF7A3FFC0B1BDE83B
:105B5000104001F0F7BF104602F098F808B101F0CC
:105B6000F1FF094B1B689C420AD10122032107481F
:105B700001F04CF9EAE70121FFF7A9FF0246F6E739
:105B800010BD00BF3A840020809A0020309A002087
:105B9000F8B50A4DAB889E181D2E14460DDC2F68F3
:105BA000FE1802F1010C07F803C07070B01C05F07C
:105BB000FBFCAB8802331A19AA80F8BDE0990020DB
:105BC000F0B54E4E317895B0002940F092804C4CA3
:105BD000019110222046FEF7A5FB4A4B0199236054
:105BE00018220EA8FEF79EFB01238DF838302823DB
:105BF0001093454B1B78002B7DD0444B04AC03F134
:105C0000100518685968224603C20833AB4214468F
:105C1000F7D13F4C10220DEB0201E01D05F0B4FC62
:105C2000002868D03B4801210460FFF728FF08B135
:105C300001F088FF384B08AA03F1100C17461868CA
:105C40005968154603C5083363452A46F7D12068CD
:105C50000C903248A288A379ADF834200760012265
:105C600000218DF83630FFF70CFF08B101F06AFF14
:105C700003238DF84C3004238DF80E3041F230535D
:105C8000ADF81030264B08AA9B798DF812300DF133
:105C90000F0104A8FFF717FF012210460DF10E01B6
:105CA000FFF776FF1F4805F0B6FC1E49C2B2092077
:105CB000FFF76EFF102208A90620FFF769FF1049C1
:105CC00019480EAAFFF7DFFE08B101F03BFF164CA2
:105CD000042221780120FFF7DEFE08B101F032FF37
:105CE00020780121FFF7D1FE08B101F02BFF01233D
:105CF000337015B0F0BD0623BEE700BF649A0020E4
:105D0000E0990020C09900202C9A002084BA0F004E
:105D1000F09900207C9A0020F7990020609A0020DA
:105D2000309A002026BA0F0038840020F0B50446CF
:105D30000146B1B0A84801F09DF82388262B3BD836
:105D40000F2B04D8012B00F0CC8031B0F0BD103BFC
:105D5000162BFAD801A252F823F000BFE55D0F0020
:105D6000F35D0F004B5D0F00255E0F001F5F0F00FE
:105D70004B5D0F004B5D0F004B5D0F004B5D0F0047
:105D80004B5D0F003B5F0F004B5D0F004B5D0F0045
:105D90004B5D0F004B5D0F004B5D0F004B5D0F0027
:105DA000B15F0F004B5D0F00A35F0F004B5D0F0055
:105DB0004B5D0F00A55E0F00513B9AB2052AC4D877
:105DC000052BC2D801A252F823F000BFEF5E0F00EE
:105DD0003B5F0F004B5D0F004B5D0F00C75F0F0077
:105DE0008B5E0F007D4BA2881A807D4B00221A70BB
:105DF000ABE78023794CADF824307A4B20883222EF
:105E00001A6010A9012309AAFFF759FE08B101F091
:105E100099FE754B1B780BB9FFF7D2FE4FF6FF7357
:105E2000238092E7714B03AC9A79186899888DF8B2
:105E300022200790DA1DADF820101733264610688F
:105E40005168254603C508329A422C46F7D1684B63
:105E500009AA03F11807154618685968144603C4BF
:105E60000833BB422246F7D1186820605B48614A7C
:105E7000008810AB8521CDE91456FFF712FE0028EB
:105E80003FF463AF01F05EFE5FE7A379002B7FF480
:105E90005CAF524B13211888FFF7FBFD00283FF43D
:105EA00054AF79E0237A012B7FF44FAF4C4B0022A3
:105EB0001A704C4B19680139196069B910AB14227A
:105EC0001846FEF72FFA05228DF84020149A00920A
:105ED0000FC8FFF73DFB38E731B0BDE8F040FFF7F2
:105EE0006FBE3E4B00211888FFF7EFFDD6E7A37980
:105EF000002B3FF42AAFA27B043A022A3FF625AFDB
:105F0000022B18BF01238DF840304FF4C173ADF858
:105F10004430324B10A91888FFF7CDFDAFE7334A64
:105F2000258A508D02F118010023854218BF1946B9
:105F30000732A088FFF7B7FDB0E7284B1C884FF663
:105F4000FF75AC4227D02C4B1B78F3B12B490123B2
:105F500008222046FFF7B1FDF0B9024601460223B0
:105F60002046FFF7AAFDB8B92A460C212046FFF7C4
:105F7000A0FDA0F54053023B012B7FF6E6AE0828BA
:105F80003FF4E3AE112889D1DFE61A4619462046D0
:105F9000FFF793FD82E7082031B0BDE8F04001F043
:105FA000D1BD0E4B002218881146FFF780FD75E722
:105FB00000238DF840308DF84130084B10A9188827
:105FC000FFF773FDC1E6E188044BF729188828BF65
:105FD000F721FFF776FD61E7309A00203A84002030
:105FE000649A00203C840020779A0020F0990020D9
:105FF000089A0020729A00202C9A0020249A0020EF
:1060000030B5474A474800231370474A95B013708C
:1060100000F04CFB01F0FAFD0446002869D143482A
:10602000FEF7E2FA002867D1414B01221A701123D2
:1060300040488DF8043005F0EEFA3E4982B201A8DE
:10604000FFF72DFD08B101F07DFD0822002104A815
:10605000FEF768F90823ADF810301823ADF81230B8
:106060000023ADF8143004A84FF4C873ADF816300F
:10607000FFF713FD08B101F065FD00210C2201A816
:10608000FEF750F90823ADF804302B4B02932B4850
:106090002B4B039301A900F033FD08B101F052FD31
:1060A000284D4022002104A8FEF73CF9284605F0BF
:1060B000B2FA0595244DADF81000284605F0ABFA6C
:1060C0000795224DADF81800284605F0A4FA1123D3
:1060D000ADF8300004A8ADF84C300D9500F0DEFFAF
:1060E0001B4B30221A7007225A7010229A70FFF749
:1060F00067FD204615B030BD04A8FFF7BEFC08B10F
:1061000001F020FD9DF8113004A801338DF8113005
:10611000FFF7B1FC00288AD001F014FD87E700BF2B
:10612000779A0020295B0F00719A0020F0990020D7
:106130002C9A002026BA0F00A5610F00309A00208B
:10614000035B0F002DBA0F0041BA0F0060BA0F00B9
:10615000729A002010B50F4B01221A700E4B18884E
:106160004FF6FF73984207D01321FFF792FC08B156
:1061700001F0E8FC002010BD084C2378002BF9D07A
:10618000074B1878FFF783FC08B101F0DBFC002314
:106190002370EFE7779A00203A840020649A002069
:1061A00038840020F0B50B7889B005460C46092BE1
:1061B00035D8DFE813F02D00360041000A00190041
:1061C0002600070110014400150100F089FB04219D
:1061D000FFF77DFC0246284600F018FEF8B109B032
:1061E000BDE8F04001F0AEBCFFF7B4FF08B101F02C
:1061F000A9FC00F095FB90B109B0BDE8F04000F0BB
:106200009DBBFFF7A7FF0028F6D001F09BFCF3E74A
:10621000764B01221A704B681A78754B1A7009B0C8
:10622000F0BD724B02261E704B681B78012BF6D115
:1062300000F008FB3146CBE76C4B0322EEE705206C
:10624000FEF74AFE694B1E78022E37D0032E59D036
:10625000012EE4D104AB102218460021FEF762F8AB
:10626000634A237A12788DF81020002203920C2BB7
:106270004FF00302CDE9012008D03146284600F056
:10628000C5FD0028CBD001F05DFCC8E76368184667
:10629000FFF7EFFB0590181DFFF7EBFB069003F1EE
:1062A0000800FFF7E6FB079001A800F005FA0028B8
:1062B000B5D03146FFF70BFC0246DFE7237A13F037
:1062C000030011D0C0F104021A44D2B219464FF0B3
:1062D000000C0E4601316768C9B2914207F806C04A
:1062E000F7D11B1A043323720123049363680693C6
:1062F000237A04A89B08059300F0C6FA00288ED0E4
:106300000221D7E7207A830702D03246314662E77E
:10631000384E0190314601F08FFC014618B12846F5
:10632000FFF7F1FB7BE76168019A306805F03CF903
:10633000019801F0E7FC01460028F0D101A93046A0
:1063400001F0F0FC01460028E9D104230493019BED
:106350009B08059304A83368069300F007FA0746E4
:1063600040B9254A237A11680B441360234B3268E5
:106370001A6054E709281BD11F4B217A1A6811446F
:1063800019601F4B1B78002B3FF449AF1D4C23882D
:10639000013B9BB22380002B7FF441AF284600F0E5
:1063A000FBFC08B101F0CEFB174B1B88238036E7BE
:1063B000306801F06BFC014610B12846FFF7A3FBE3
:1063C0003946ACE70E4B01221A700F4A8B881380B6
:1063D0000C4A138023E70A4A002313700A4AF8E79D
:1063E000054B196800F09CFCF8E600BF719A00208C
:1063F000789A0020849A0020689A0020809A0020D1
:10640000709A00206E9A00206C9A002018DF704766
:10641000012973B514460D461A4608D0032912D037
:1064200014B3204602B0BDE8704001F08BBB0F4BA7
:106430001B78052BF4D10E4B1B68002BF0D02146A6
:1064400004209847ECE7094E3378022BE8D1094B3A
:1064500001925B689847064B35701B68002BDFD0B4
:10646000019A21462846ECE702B070BD909A0020C0
:10647000889A0020949A002030B589B003AC142289
:1064800000212046FDF74EFF094B1B88ADF80E306A
:10649000084BDB6806930025079B8DF80C50009392
:1064A00094E80F00FFF754F8284609B030BD00BF4C
:1064B000A09A0020EC9A002000B589B003238DF843
:1064C0000C300A4B1B88ADF80E30094B5A68049209
:1064D0009A68DB680693079B0093059203AB0FCB8A
:1064E000FFF736F8002009B05DF804FBA09A002001
:1064F000EC9A002000B589B001238DF80C300F4BC9
:106500000F4A1B88ADF80E304FF440535968914242
:1065100008BF9A680B4B5968049118BF4FF480521A
:106520009968DB6806930591009203AB0FCBFFF7E8
:106530000FF8002009B05DF804FB00BFA09A00200E
:10654000DBE5B151EC9A002000B589B003AB142211
:1065500000211846FDF7E6FE04228DF80C200022EB
:1065600000920FC8FEF7F4FF09B05DF804FB0000CD
:10657000194BF7B5194C1C60194B02221A70FEF723
:106580001BF9184B48B11968204600F001FF00B311
:1065900003B0BDE8F04001F0D5BA1D68124F013DCF
:1065A0002D0B013504464FF440567368BB420CBFB7
:1065B000B0684FF4805000EB04300134FEF7D6FD94
:1065C000A542F2D80023054800931A460321FFF79D
:1065D0001FFF03B0F0BD00BF049B0020FC9A002009
:1065E000909A0020A49A0020DBE5B15170B50C46CA
:1065F00086B00321CDE902100546960802A8019352
:1066000004940596FFF702FFE0B1B4F5805F019BAB
:1066100011D8012302A8CDE90235CDE90446FFF7E0
:10662000F5FE78B9032302A8CDE90235CDE9044689
:10663000FFF7ECFE06E01A46E11AE81AFFF7D6FF6C
:106640000028E6D006B070BD1FB5114B0193114B69
:10665000114900241C70114B01A81C80CDE9024493
:1066600000F074FE0E4B10B11C7004B010BD4FF45E
:1066700040520C4954688C4207490CBF92684FF451
:1066800080524A60084A0021116001221A70ECE72A
:1066900011640F00E89A0020FC9A0020A09A0020C4
:1066A000909A0020DBE5B1518C9A0020014B1860D4
:1066B000704700BF889A002038B54368214C0FCB43
:1066C00084E80F002278500701D5910733D1606824
:1066D000830730D1A3689D072DD1E16811F0030431
:1066E00029D1184408441849B3F5204F086024D82C
:1066F0004FF4405315495D688D420ABF9B684FF4C3
:106700006923C3F56A23984217D8114B11491960C0
:1067100011495960D10709D5104A9A60104B1B786E
:10672000012B0CD1FFF724FF204638BD92074CBF48
:106730000C4A0D4AF1E70624F6E70C24F4E7082496
:10674000F2E700BFEC9A0020A49A0020DBE5B151EB
:10675000949A002071650F0049650F00F5640F00E1
:10676000909A0020B9640F0079640F002DE9F0437E
:1067700085B0002853D0816811F0030451D12C4B0F
:106780001B78052B4FD12B4E42683368DFF8AC9055
:1067900003EB82039500D9F80020934207D94FF00C
:1067A000FF3333600C24204605B0BDE8F08303912D
:1067B000FEF702F8DFF88880039940B13368D8F813
:1067C00000002A4600F0D4FDD8B10446EBE74FF4B0
:1067D0004053194A58683768904208BF9868039137
:1067E00018BF4FF4805000232A463844FDF782FF3B
:1067F0000399D8F8000000950B4600220121FFF70D
:1068000007FE33681D44D9F8003035609D420CD135
:10681000FDF7D2FF0028C6D1FDF74EFFC3E70E24D7
:10682000C1E71024BFE70824BDE70924BBE700BF88
:10683000909A00208C9A0020DBE5B151A49A0020A8
:10684000049B002070B50B4B1D6885B90A4E337848
:10685000042B0CD1094C0A4B21781A780948FDF712
:10686000E3FE10B90523337070BD2570FCE70820E6
:10687000FAE700BF8C9A0020909A0020E89A002046
:10688000EC9A0020A89A0020F8B5114B1A78032A38
:1068900003D0042A03D0082416E004221A700D4BFA
:1068A0001C68002CF7D10C4D43682F789E0007EB35
:1068B0008303402B0AD8816808483246384404F0E4
:1068C00073FE2B7833442B702046F8BD0924FBE778
:1068D000909A00208C9A0020E89A0020A89A002024
:1068E00010B50B4C2378052B10D10A4B0A4A1B68B4
:1068F000116899420AD106232370084B1B68586817
:10690000FDF7CCFE08B90723237010BD0820FCE773
:10691000909A0020A49A00208C9A0020049B0020CA
:10692000044B1B78072B02D1034B9B6818470820A8
:10693000704700BF909A0020949A002000B589B05B
:1069400006238DF80C30079B009303AB0FCBFEF7AB
:10695000FFFD09B05DF804FBF0B58DB005A8FEF7AA
:1069600069FF089C002C3ED00B9E04F58053B34277
:106970002DD91E4BA6F5805503EA55054FF440531B
:106980009B689C420BD869002B46A4EB450201F59D
:10699000805106EB4500FFF729FE0DB0F0BD05F56F
:1069A0008053012701A8CDE90173CDE90337FFF733
:1069B0002DFD0028F1D14FF4805301A8CDE9023319
:1069C00001970497FFF722FD0028E6D1DBE70123BA
:1069D000CDE90136A4084FF4805301A80393049431
:1069E000FFF714FDD9E72046D7E700BF00F0FFFF0F
:1069F00000B58DB005A8FEF71DFF099880B1089B72
:106A00008BB94FF440530B4A596891420ED19B68A1
:106A100080080022039001A8CDE90123FFF7F6FCCE
:106A20000DB05DF804FB0B9A1344F1E74FF480536B
:106A3000EEE700BFDBE5B15100B58DB005A8FEF76C
:106A4000F9FE099898B1089BA3B94FF440530C4A3A
:106A50005968914211D19B680393800803214FF438
:106A60007422049001A8CDE90112FFF7CFFC0DB00C
:106A70005DF804FB0B9A1344EEE74FF48053EBE709
:106A8000DBE5B15110B58CB005A8FEF7D3FE089830
:106A9000B8B10B9C00F58053A34214D94FF4405376
:106AA0009B6898421BD80F4BA4F5805203EA52030F
:106AB0005900A0EB430201F5805104EB4300FFF7BE
:106AC00095FD0CB010BD800803224FF48053049054
:106AD00001A8CDE901230394FFF798FCF1E70E200C
:106AE000EFE700BF00F0FFFFA8DF7047AADF7047A5
:106AF000ADDF7047AEDF7047B0DF704762DF7047D1
:106B00002DE9F0470E4694B00546002800F00181BB
:106B1000002900F0FE804B68002B00F0FA804FF651
:106B2000FF7303800023ADF80A307B4B04AA03F106
:106B3000100C174618685968144603C40833634597
:106B40002246F7D141F230530DF10A013846ADF833
:106B50000830FFF7D3FF0446002840F0D6802A1DF6
:106B600002A90120FFF7C0FF0446002840F0CD80B5
:106B70009DF80A30AB7101461C220DA8FDF7D2FB2F
:106B80009DF834300E9443F004038DF8343001AF97
:106B9000AB798DF80E30214641F23253032238464C
:106BA000CDE91044CDE91244ADF80C30FDF7BAFB45
:106BB0009DF806308DF8044023F01F0343F00303D3
:106BC000214614224FF0110A08A88DF806308DF8DE
:106BD00005A00DF10C08FDF7A5FB4FF01409A888DE
:106BE0000A9405F1080308AA0DA90C94CDE90887B9
:106BF000ADF82C90FFF77AFF0446002840F085801E
:106C000001461C220DA8FDF78DFB9DF834300E9433
:106C100023F0180343F018038DF83430AB798DF866
:106C20000E30214641F2315303223846CDE910445B
:106C3000CDE91244ADF80C30FDF774FB9DF8063039
:106C40008DF8044023F01F0343F0130321464A4606
:106C500008A88DF806308DF805A0FDF763FB172313
:106C6000ADF82C30A8880A9405F1100308AA0DA9E4
:106C70000C94CDE90887FFF739FF0446002844D17A
:106C800001461C220DA8FDF74DFB9DF834300E94F3
:106C900043F002038DF83430AB798DF80E30214685
:106CA00041F2345303223846CDE91044CDE9124471
:106CB000ADF80C30FDF736FB9DF806308DF8054039
:106CC00023F01F0343F0030321464A4608A88DF82A
:106CD00006308DF804A0FDF725FB02230A93ADF8DA
:106CE0002C30A8880C9605F1200308AA0DA9CDE93F
:106CF0000887FFF7FBFE044638B97368AB62B368D8
:106D000003B1EB62054B01221A70204614B0BDE8B6
:106D1000F0870E24F9E700BF94BA0F00089B00200B
:106D200070B5054686B070B302884FF6FF739A427D
:106D30002BD0174B1B7843B3164C1022080AE17076
:106D4000207121FA02F0090E072301266071A1715A
:106D500002A800216370ADF806302270A670FDF71E
:106D6000E1FA2B8AADF808300023ADF80C30288802
:106D70008DF80A600DF1060302A9CDE90434FFF78E
:106D8000B9FE06B070BD0E20FBE70820F9E700BF92
:106D9000089B0020099B002030B5044687B060B3F3
:106DA00002884FF6FF739A4229D0164B1B7833B3F3
:106DB000154D11232B700B0A6970AB700B0C090E6B
:106DC000EB70297105230021102202A8ADF80630CE
:106DD000FDF7A8FA238AADF8083001238DF80A30B0
:106DE0000023ADF80C3020880DF1060302A9CDE98F
:106DF0000435FFF77FFE07B030BD0E20FBE708200B
:106E0000F9E700BF089B0020099B002030B504462D
:106E100087B038B300884FF6FF73984224D0134BE5
:106E20001B780BB3124D102369700321ADF80610C7
:106E3000AA7000211A4602A82B70FDF773FA238A64
:106E4000ADF8083001238DF80A300023ADF80C307E
:106E500020880DF1060302A9CDE90435FFF74AFEAB
:106E600007B030BD0E20FBE70820F9E7089B0020A3
:106E7000099B002070B50D4688B0044650B149B159
:106E8000826A3AB10B88502B49D005D8102B43D0D9
:106E9000112B54D008B070BD512BFBD18E79022E2E
:106EA000F8D10A89038A9A42F4D18B7B043B022BE6
:106EB000F0D99DF816308DF8106043F001038DF87D
:106EC00016300B8AADF818304B8AADF81A3008220C
:106ED00001F1140301A800210793FDF723FAA18A09
:106EE0002088019601AACDF808D0FFF701FE48B32B
:106EF000E36A03B1984740F2FD132088ADF81430DF
:106F000004A9FFF7F9FD0028C4D0E36A002BC1D023
:106F100008B0BDE8704018478B882380BAE7C9885D
:106F200003899942B6D108238DF81030123535F80F
:106F3000023C8DF81830059504A99047AAE74FF652
:106F4000FF73EAE7BDF800302088DB07D3D50026C1
:106F500004A9ADF81460FFF7CFFD0028D5D1297D35
:106F60004B1E072B3ED8DFE803F004192226282AFF
:106F70003B2C6B8A8DF80460012B05D80622012179
:106F80002046FFF743FFBEE7012315358DF80C308F
:106F90000295A36A01A9204698477BE76A8A0123E4
:106FA0009A428DF80430F0D806220221E8E7022345
:106FB0008DF80430EDE70323FAE70423F8E705230F
:106FC000F6E76B8A022B02D803220821D8E7B5F82E
:106FD0001530ADF80830002B0CBF07230623E7E778
:106FE0000923E5E70322CBE7A8DF7047AADF704754
:106FF0002DE9F04180468EB015461F460E4611B968
:10700000084600F09FFD15B9284600F09BFD1C22A4
:107010000DEB02000021FDF785F99DF81C30ADF85D
:107020000480002443F002038DF81C302146012324
:10703000032268468DF80630CDE90A44CDE90C44B8
:107040000894FDF76FF93B788DF800307B788DF868
:1070500001309DF8023023F01F0343F00203214664
:10706000142202A88DF80230FDF75CF90A48CDF829
:107070000CD001AB029302AA149B0088ADF810500B
:1070800007A9ADF81240ADF814500696FFF7AEFF11
:107090000EB0BDE8F08100BF309B002030B587B056
:1070A00041F60A032B4AADF80C30044603A901202F
:1070B0008DF80E00FFF798FF0546D8B92288E2B98F
:1070C00022894AB1244B0093E16804F13C0342F663
:1070D0002420FFF78DFFD8B9228C4AB11F4B0093B3
:1070E000616A04F13C0342F62620FFF781FF78B97C
:1070F000A36B7BB9284607B030BD194B009361687C
:1071000004F13C0342F62920FFF772FF0028D7D094
:107110000546EFE71A788DF810205A888DF811206F
:10712000120A8DF812209A88DB888DF815301B0A18
:107130008DF813208DF81630120A0A4B8DF81420A2
:107140000093072204F13C0304A942F65020FFF704
:107150004FFFDDE7309B0020209B0020109B00208C
:10716000189B0020289B002029DF704728DF7047EC
:10717000064B182202FB003000230422C0E904233E
:10718000037183608361C360704700BF449B00202C
:1071900023B502460846C96843680093044B53F878
:1071A0002150436910F80C1BA84702B020BD00BF56
:1071B000349B002038B5194C2378182202FB034376
:1071C0001A795869012A03D0032A1AD00F2038BD32
:1071D000134A996915689A68DB68A2EB0532B2F523
:1071E000805F184401EB053100EB053034BF920895
:1071F0004FF48062FFF7B8FF0028E8D10123A370A5
:10720000E5E74FF080531B699BB2B0FBF3F0044BF2
:107210001B681844FFF7AAFFEEE700BF449B00205D
:107220003C9C002070B5134D6C780A2C1FD02E7832
:107230003444E4B2092C84BF0A3CE4B2182606FBAD
:107240000454A261207103C9A360049BE360AB787E
:1072500004F1100282E8030023B100206B780133AF
:107260006B7070BDFFF7A6FF1128F7D1F5E704207A
:10727000F7E700BF449B002070B5234CA3782BB1E7
:1072800000260228A67002D0032833D070BD2578CE
:107290001E4A182101FB0541136889680133B1EBCF
:1072A000033F136014D863781660013B63706B1C56
:1072B000DBB21821092B01FB054188BFA5F10903A9
:1072C000002004312370FFF763FF2846FFF750FFCB
:1072D0006378002BDAD0A378002BD7D1FFF76AFFB1
:1072E0000028D3D01128D1D02178182303FB0141E5
:1072F000043105E02178182303FB014104310D20FE
:10730000BDE87040FFF744BF449B00203C9C002038
:1073100008B50A4B00211960094B1980997008467D
:107320000131FFF725FF0A29F9D1064B002018602B
:10733000054BC3E90000C3E9020008BD3C9C0020E6
:10734000449B0020389C0020349B0020064A0346C2
:107350001068042807D00860411C11601A68034BAC
:1073600043F8202000207047389C0020349B0020E8
:1073700013B5CC180C43A40708D1009313460A4652
:1073800001460120FFF74EFF02B010BD1020FBE7C1
:1073900007B500220B46009201460320FFF742FF8B
:1073A00003B05DF804FB0000094B5A78997801326C
:1073B000D2B2914208BF0022197891421FBF0270D9
:1073C0005878182202FB003014BF043000207047A8
:1073D000409C0020082910B5044602D0002000F08F
:1073E000B1FBD4E90030BDE81040184773B505463D
:1073F00000240DF107000E468DF8074000F0B0FBA9
:107400000DF10600FFF7D0FF90B10670094B9DF813
:10741000062045605A709DF8070000F0C5FB24B9AE
:10742000054B4FF48012C3F80021204602B070BD16
:107430000424F0E7409C002000E100E0204B2149BB
:107440001A682F2300BF00BF00BF00BF00BF00BFEE
:1074500000BF00BF8A422FD000BF00BF00BF00BFE7
:1074600000BF00BF00BF00BF00BF00BF00BF00BF24
:1074700000BF00BF00BF00BF00BF00BF00BF00BF14
:1074800000BF00BF00BF00BF00BF00BF00BF00BF04
:1074900000BF00BF00BF00BF00BF00BF00BF00BFF4
:1074A00000BF00BF00BF00BF00BF00BF00BF00BFE4
:1074B00000BF00BF00BF00BF013BC3D1704700BF8A
:1074C000348400200024F4000C4B0D484FF40032AB
:1074D00010B5C3F8802001244FF48033C0F848333E
:1074E000C0F808334460FFF7A9FF064B8460002012
:1074F0001860FFF7A3FF044B187010BD00E100E017
:10750000001001405C9D00204D9D00202DE9F341BD
:107510002549264B0025C1F84051C1F84451C1F816
:107520004851C1F84C51C1F80051C1F804511B68D1
:10753000002B34D0D1F804451D49DFF88880096854
:10754000641A24F07F442F461968A14212D81A7C8D
:10755000DE69641A0D4462B15A691F7400929B6916
:10756000019342460821684600F056FA08B100F03F
:10757000E9FABEB90F4A104B11781B788B4205D13E
:107580000133DBB2022B08BF0023137012780B4BC0
:1075900043F822500A4B4FF48012C3F8002102B086
:1075A000BDE8F0813346CFE700100140609D002028
:1075B0005C9D0020599D0020589D0020509D00207A
:1075C00000E100E0D5730F002DE9F74FA84AA94963
:1075D00013780978A84C99423BD00133DBB2022BD7
:1075E00008BF00231370A5491278A54B0F6853F804
:1075F00022003B1823F07F4300220B6023681546CE
:107600001646944613B942B1236006E019688142D8
:107610000DD902B12360091A196001262368DFF829
:10762000689200930027BDB9DFF868A268E0401AAD
:107630000E44D968D3F81CE0C3F800C031B1BA19C0
:1076400022F07F42C3E90121DD611D46734601221C
:10765000D8E700252E46E1E72846ED69874BD0F8AC
:1076600004C01B68DFF830E28168ACEB030222F053
:107670007F42724500F2AD800A440260012202742A
:1076800022680023C0E90133C361002A40F0AB80C7
:107690002060C8E75A1C9AF80210D4F800B0D2B2A1
:1076A00091428AF8002004BF00228AF800201822A4
:1076B00002FB03A31A799868022A77D0032A00F004
:1076C0008580012A1CD190F810C0BCF1000F17D1A1
:1076D000D96841601A6982605A69C2609B69836196
:1076E000684B1B78002B18BF61464160B6E790429B
:1076F00000F09E809046D269002AF8D100230374DE
:107700009AF800309AF801209A42C3D1236827B929
:10771000009A9A4201D1002E42D0002B00F08580C1
:10772000D3F80090584C554BD4F804651868574F5F
:10773000351A3B7825F07F4503359BB94FF48033EC
:10774000C4F84433C4F80433514B4FF400324FF0C3
:107750000108C3F880211A60C4F80080FFF76EFEAC
:1077600087F80080A9452CBF4844401920F07F408D
:10777000C4F84005D4F804359B1B23F07F43801BDD
:10778000033320F07F4083420AD9D4F80435C4F88B
:107790004035FFF753FE3E4B4FF40032C3F8002153
:1077A000384B00221A7003B0BDE8F08F5A46D84615
:1077B000A2E78BF81020DBF81CB00123BBF1000F0F
:1077C000F7D1002B9CD0C4F800B099E700231A46EB
:1077D000F4E7A3EB0C0323F07F438B4234BFCB1AB7
:1077E000002303604AE70168136899421BD85B1ABB
:1077F0001360C2614CE7A1EB0C01D3F81CC01A4620
:10780000BCF1000F0AD06346D3F800C08C45F2D318
:10781000ACEB010CC3F800C09C4613460160C0F8F5
:107820001CC0D861FFE61346EEE7FFF74DFEB7E751
:10783000404510D1DBF81C30236063B9DFF83CE031
:1078400001920121C9F80810CEF800300D4B1970D3
:10785000FFF7F4FD019A1368D269C8F81C2012B131
:1078600011680B44136023685B4518BF012745E787
:10787000589D0020599D0020609D00205C9D0020A7
:10788000509D00204C9D0020001001404D9D002087
:1078900000E100E0409C0020FEFF7F0008B5FFF7FC
:1078A00013FE104B00200B2218809A700E4B1860AC
:1078B0000E4B18700E4B18700E4B4FF48012E021D7
:1078C000C3F8802183F814131A6002F18042A2F5F4
:1078D0006F22C2F8080583F81113074BD2F804256C
:1078E0001A6008BD409C0020609D0020589D00202B
:1078F000599D002000E100E05C9D0020074B9B7833
:107900004BB132B128B10368187C20B959745A615F
:107910007047072070470820704700BF409C002038
:107920002DE9F743DFF8848098F8023005460E46CB
:107930001746ABB3A0B3042930D9436983B3437C62
:107940000024012B0DF107000CBF8946A1468DF8DC
:10795000074000F005F90DF10600FFF725FDD8B14D
:10796000012303700F4B4560D3F80435C0E9049739
:10797000C0E902369DF8063088F801309DF807000E
:1079800000F012F924B9084B4FF48012C3F800211B
:10799000204603B0BDE8F0830424EFE70724F7E7AF
:1079A0000824F5E70010014000E100E0409C0020C1
:1079B000064A92783AB130B1426922B1002202748B
:1079C0000221FFF713BD0820704700BF409C002034
:1079D0004B1C30B5DB00044612F003009BB20DD106
:1079E000074D2A601A44074B1A60074B1870074B63
:1079F0001870074B1C80074B198030BD0720FCE72F
:107A00006C9D0020689D0020649D0020749D0020D6
:107A1000709D0020729D00202DE9F347DFF8C080A3
:107A2000B8F800308B4206460D4617464CD300246A
:107A30000DF107008DF8074000F092F8244B254A1D
:107A400025481B78008892F800C084455FFA8CF1C5
:107A500038BF4C1CDBB238BFE4B2A3422ED014783E
:107A60001178CBB2884286BF0133DBB2002313709A
:107A70009DF8070000F098F84FF6FF739C4225D060
:107A8000DFF86090D9F800204FEAC40A42F8347059
:107A900002EBC403AEB1A5B1104BB8F800001B68EF
:107AA0002A4604FB0030314603F07EFDD9F8003051
:107AB000534400209D8002B0BDE8F0874FF6FF746C
:107AC000D6E700209880F6E70920F4E70420F2E7E3
:107AD000749D0020649D0020729D0020689D002000
:107AE000709D00206C9D002070B5104C104D2278C8
:107AF0002B789A4200D170BD0E480F4A2378126845
:107B000006880E4802EBC301006852F833208988CA
:107B100003FB060090470A4922780988D3B29142B4
:107B200086BF0133DBB200232370E0E7749D0020A1
:107B3000649D0020709D00206C9D0020689D0020A9
:107B4000729D00201FB50021CDE9021001AA44F268
:107B50000100ADF80410FCF724FE05B05DF804FB4D
:107B600070B5EFF3108672B60C4A946801239CB985
:107B700093600B4B0B4DD3F8801029401160C3F874
:107B80008050D3F8841051604FF0FF32C3F8842046
:107B9000047006B962B670BD0370FAE7789D0020E4
:107BA00000E100E0FC06FFBD10B5084B9A685AB131
:107BB00050B9EFF3108172B6054A1C6814605C6816
:107BC0005460986001B962B610BD00BF789D002076
:107BD00000E100E003462AB110881A4619448A429F
:107BE00003D170474FF6FF70F7E712F8013B40BA38
:107BF00080B25840C0F30313584080EA0033580164
:107C000000F4FF509BB25840E9E70000064B074ADA
:107C100000201870064B1A600822C3E90120C3E94E
:107C20000300C3E905007047849D0020889D002063
:107C300068B000200020704730B5F9B1124B5C6885
:107C400000220A60E4B1B0F5167F1BD8D868013C69
:107C500001305C60D8601C6818694FF4177505FB2B
:107C600000440C60012101FA00F49969013000F030
:107C70000700214318619961104630BD0E20FCE7D2
:107C80000420FAE70C20F8E768B00020F0B51C49A2
:107C90008A689AB34D690E68AC1A04F0070423464B
:107CA0004FF4177707FB036C604511D1012000FAF0
:107CB00003F588696840886100204E68D1F818C0D3
:107CC0004FF0010E73440025164403F007030AE049
:107CD000013303F007039D42E4D11020EDE74AB1E0
:107CE000013A1C4601250EFA04F414EA0C0FA6EB27
:107CF0000207F4D00DB1C1E90172F0BD0420FCE728
:107D000068B00020064A13691268013B4FF41771EE
:107D100003F0070301FB0323C3F858020020704758
:107D200068B0002030B5C0B1B9B10E4BDA68B2B15D
:107D3000013ADA609A681C6801329A605A694FF415
:107D4000177505FB024404600132D4F8580208603C
:107D500002F007025A61002030BD0E20FCE704202B
:107D6000FAE700BF68B000203FB40C49086890B142
:107D70000B4B1C687CB10B4A1568CDE902500023FF
:107D80008DF804300B60136004AB13E90700234641
:107D900004B030BC184704B030BC70478CB0002031
:107DA00090B000209CB00020DC2810B509D0DD2860
:107DB00010D0C02816D1FFF7D7FF0E4B0E4A1A601D
:107DC00010BD0E4A0E4B19681368581C1060C02273
:107DD000CA54F2E7094A0A4B19681368581C106024
:107DE000DB22F5E7064B054A196813685C1CC8548A
:107DF0001460E2E740840020197E0F008CB0002060
:107E00009CB00020C02802BF014B024A1A60704794
:107E100040840020197E0F00C02810B409D0DB2850
:107E20000BD0094B094A196813685C1CC8541460CC
:107E300006E05DF8044BFFF797BF054B054A1A6053
:107E40005DF8044B704700BF9CB000208CB0002050
:107E500040840020A97D0F0007B501228DF807009E
:107E60000DF10701002002F081FD00280CBF042065
:107E7000002003B05DF804FB10B5064A064C1268FA
:107E80002368D05CFFF7E8FF10B923680133236053
:107E900010BD00BFA0B0002094B0002008B5C020E5
:107EA000FFF7DAFF28B9034B1B6813B9024B034AEB
:107EB0001A6008BD94B0002044840020797E0F0031
:107EC00008B5DB20FFF7C8FF10B9024B024A1A6061
:107ED00008BD00BF44840020DD7E0F0010B50C4AB1
:107EE0000C4C12682368D35CC02B03D0DB2B0DD065
:107EF000042010BDDC20FFF7AFFF0028F9D1236874
:107F0000054A01332360054B1A60F2E7DD20F2E7F2
:107F1000A0B0002094B00020797E0F00448400209F
:107F20007FB5184C184D194E002002F0BFFC30B33D
:107F300022689AB12968336899420FD2012201A9B7
:107F4000002002F0BFFC10B94FF0FF3001E09DF8B7
:107F500004000F4BC0B21B689847E5E70D4B1B6848
:107F60006BB10292084A0221126803928DF8041044
:107F700004AA12E9070004B0BDE87040184704B035
:107F800070BD00BF9CB000208CB0002088B00020E5
:107F90004084002090B00020014B18600020704702
:107FA00090B00020034B1A780AB901221A70002001
:107FB000704700BF84B00020014B0020187070474C
:107FC00084B000202DE9F04F85B0002851D02A4F11
:107FD0003B78012B07D0022B14BF08240424204631
:107FE00005B0BDE8F08F254DDFF8A090244E254C5C
:107FF000DFF89C80DFF89CA0DFF89CB0C9F8001087
:1080000000232B60022330603B70C4F800802A6894
:10801000D9F800309A4215D3C4F80080FFF73EFF2C
:10802000044608BB184B1B6801223A70E3B18DF877
:108030000420326802922A68039204AA12E9070017
:108040009847CCE733682A689A5CC02A03D02A682C
:108050009B5CDB2B04D12368534508BFC4F800B0F8
:1080600023689847042801D10024B8E71128CED10D
:10807000FAE71024B3E700BF84B0002094B00020DA
:10808000A0B000204484002090B0002098B00020D0
:108090009D7E0F00797E0F00C17E0F00054B064AC2
:1080A0001860064B1960064B00201860054B1A60DB
:1080B000704700BF9CB00020057E0F0088B00020F4
:1080C0008CB0002040840020064B07481B68DB0072
:1080D000DBB2002203705B4242708270C3700421E5
:1080E000FFF770BFCCB00020A4B0002070B52B4CBF
:1080F0002B4D02462378012B14D0022B21D0002BCC
:108100004BD1002A49D12748FFF752FC08B1FFF7AD
:1081100019FD254B1B68002B3FD0244ABDE8704059
:1081200010781847012A38D12968214B0631186880
:10813000FFF748FF08B1FFF705FD02232370002277
:10814000D8E7022A16D0032A0CD032BB194B1548A7
:108150001A6041F67F21FFF7E3FBF0B1BDE8704004
:10816000FFF7F0BC144A1368013303F007031360F0
:108170000023E3E70F4A1368052B0AD0013313608D
:10818000074B19680A4BBDE8704018680631FFF7C5
:1081900019BF064B01221A70EAE770BDF0B000204B
:1081A000E4B00020A8B00020E0B00020E8B000203B
:1081B000F8B00020ECB00020D0B00020F0B585B0C1
:1081C00004AB03E907009DF80400032874D8DFE836
:1081D00000F00802A3A6012005B0BDE8F040FFF7BB
:1081E00085BF039E544C032E40F28280029D6B7823
:1081F00013F00F0265D00E2A7AD1042E55D02A78BA
:10820000500652D5110650D51A44AB781A44EB7873
:108210001A4412F0FF0248D1B71E39462846FFF72C
:10822000D9FCEB5B834240D144492A780B6802F0C9
:108230000702D8B282422BD1013303F007030B604F
:10824000FFF742FF3E4B012230461A70FFF75AFDFE
:1082500008B1FFF777FC38494FF41670FFF7ECFCD4
:10826000002862D0042802D00020FFF76BFC3548BC
:108270000521FFF713FF08B1FFF764FC324B1B68C1
:10828000002B56D04FF0000005B0BDE8F040184775
:1082900020684FF41671FFF701FF08B1FFF752FC99
:1082A00005B0BDE8F040FFF70FBF20684FF416712E
:1082B000FFF7F4FE00283CD005B0BDE8F040FFF722
:1082C00041BC2978AA780B441344EA78134413F08C
:1082D000FF030DD11D4A12680132C1F3C20102F041
:1082E0000702914204D11A4A03201370FFF7FEFEE1
:1082F00025681DB14FF416712846D9E70E494FF491
:108300001670FFF799FC60B1042802D02846FFF7E9
:1083100019FC0C480521CBE70A480521C8E70320D2
:10832000CAE720684FF41671C2E720684FF416714F
:108330009FE705B0F0BD00BFF4B00020CCB0002036
:10834000C8B00020D4B00020DCB00020D0B00020A5
:10835000E8B000200220FFF7C9BE0000074B10B5AF
:10836000044618600648FFF717FE08B1FFF7EAFB5E
:10837000002C0CBF0E20002010BD00BFDCB0002080
:10838000BD810F00184A1948002310B51360184A20
:108390001360184A1360184A1370184A1370184B68
:1083A000184A01211960184B1960184B1970FFF712
:1083B000A5FA08B1032010BDFFF728FC0028FAD168
:1083C000FFF7F0FD0028F6D1114C4FF4167021464E
:1083D000FFF732FC0028EDD120684FF41671BDE89C
:1083E0001040FFF75BBE00BFF8B00020A4BA0F003A
:1083F000E4B00020ECB00020C8B00020F0B00020B5
:10840000CCB0002055830F00D0B00020E8B0002091
:10841000F4B000200C4A08B5002313600B4A136027
:10842000FFF708FC08B1FFF78DFBFFF7C5FD08B1AA
:10843000FFF788FB0648FFF7BBFA042802D10020AB
:10844000FFF780FB002008BDE0B00020DCB000207A
:10845000A8B0002037B50D46044698B191B10A4B3B
:1084600019780022019259B101A91A70FFF75AFC3C
:10847000019B063B2B8023680433236003B030BD8F
:108480000420FBE70E20F9E7C8B000200438FFF70E
:10849000FDBB18DF70470000F0B51D46154B87B0D7
:1084A00018680F4659681B7A03AC03C42370124B3B
:1084B00018685968114B009301AC03C42046164656
:1084C00003F0A9F821460246384603F06DF801A8EA
:1084D00003F0A1F801A90246304603F065F86846AA
:1084E00003F099F869460246284603F05DF807B0A4
:1084F000F0BD00BFA8BA0F00B1BA0F00312E300096
:108500000120704710B51C460B781E2B0AD00023A3
:108510002022052102F076FC4FF6FF70A04228BF12
:10852000204610BD0020F9E7F8B5069F14460D4619
:108530003A46002118461E46FBF7F4FE7CB14FF088
:10854000E023D3F8F03DDB0700D500BE4FF0FF304D
:108550000AE0284600F0F8F9013504F50074BC4241
:1085600006EB0401F5D32046F8BD0000F8B50A4F2C
:108570000D461E460024069B9C4206EB040101D3D7
:108580002046F8BD3A46284600F0B0FA0028F7D059
:10859000013504F50074EEE7FCB0002030B5264D3F
:1085A0002A7A8DB09AB107AC142200212046062504
:1085B000FBF7B8FE8DF81C500B9B009394E80F005E
:1085C000FCF7C6FF0620FCF787FC0DB030BD2B681A
:1085D000002BFAD0194B197819B105201A70FCF745
:1085E0007BFCD5E900329A42EFD307AC142200217C
:1085F0002046FBF797FE6B7ADBB106234FF420424F
:108600004FF474214FF460208DF81C3002F0BCFF51
:108610000028D1D01022002103A8FBF783FE4FF4DD
:1086200060224FF4205303A8CDE90423FFF731FF64
:10863000C2E78DF81C30BFE7FCB000204884002062
:10864000024B0B604FF40073138070470901010067
:108650000120704700487047F6840020044B054A0B
:108660001878054B002814BF10461846704700BF05
:1086700018B30020AB840020498400202DE9FF417D
:108680001E4B187020B11E4B2A229A720022DA72F9
:108690001C4A1D4DDFF878C017461C4BEE4603F10F
:1086A0001006744618685968F046A8E803000833B5
:1086B000B342C646F6D12B7803F00F0310336B4458
:1086C00013F8103CD373114B18685968A646AEE8EE
:1086D00003000833B3427446F6D115F8013B04A9F0
:1086E00001EB1313654513F8103C9373A2F10202DA
:1086F000D3D100233B7404B0BDE8F08118B300204F
:10870000F68400209CB3002060000010B9BA0F006E
:108710006800001010B570B9134B14481968022294
:1087200002F042FF01230133DBB211485B0043F446
:108730004073038010BD052814D80B4B53F820401C
:10874000204602F068FFC3B21F2B28BF1F23084A30
:108750002046E118884202F10202E4D010F8014BF1
:108760001480F7E70020E5E7088500201CB300200F
:108770001AB300204DDF70474EDF70474FDF704760
:1087800050DF704712DF704700F0C4BE002000F0D9
:108790002FBD00001FB5244B402283F82723002360
:1087A0008DF807304FF4405304465A681F4B9A42E5
:1087B00027D10DF10700FFF7E5FF9DF8073003B360
:1087C0000120FFF7D9FF0120FFF7D4FF0120FFF7B9
:1087D000D5FF02A8FFF7D4FF029BDA0702D50020DD
:1087E00000F098FE029B9B0702D5022000F092FE4B
:1087F0002046FFF743FF00F027F802F055FE04B0D3
:1088000010BD002301A88DF80430FCF71DFC084BB7
:10881000039303A8FCF740FCFCF744FC4FF08043B3
:10882000D3F838340293D7E700E100E0DBE5B1513B
:1088300089870F00012000F06DBE0120FCF74CBBC2
:108840000220FCF749BB00007FB52F492F4802F0FA
:10885000D3FE4FF440532E4A596891424CD11A78B6
:10886000102A46D9142A186944D95B69294CB3FBEC
:10887000F4F50A2201A904FB153402F017FF26497A
:10888000224802F0B9FE01A9204802F0B5FE2349B2
:108890001E4802F0B1FE0A2201A9284602F006FF96
:1088A00001A91A4802F0A8FE1D49184802F0A4FECA
:1088B0004FF47A760A2201A9B4FBF6F5284602F0B5
:1088C000F5FE01A9114802F097FE15490F4802F084
:1088D00093FE0A2201A906FB154002F0E7FE01A95A
:1088E0000A4802F089FE0F49084802F085FE04B0EC
:1088F00070BD00200023B9E70B49044804B0BDE86F
:10890000704002F079BE00BFD7BA0F00208500206A
:10891000DBE5B15140420F00E4BA0F00E2BA0F00AC
:10892000E6BA0F00F1BA0F00E8BA0F0010B503461F
:108930001C1A944200DB10BD0C781CB1013103F805
:10894000014BF5E72024FAE72DE9F3410C460546F3
:108950004FF4007200212046FBF7E4FC6DB95C493E
:108960003E22204602F020FE552384F8FE31AA2341
:1089700084F8FF3102B0BDE8F081B5F5017F2DD854
:10898000691EB1F5817F24BF6FF4817C05EB0C017A
:10899000C9B10B02C1EBC15103F5807004EB412456
:1089A00040F643451A1FB2F5446F03F1010206D2A7
:1089B000AB4214BF91B24FF6FF7124F813109042EE
:1089C0001346EFD1D6E7F823237004F109022346BA
:1089D000FF2003F8010F9342FBD1DAE7B5F5027FE0
:1089E00039D86FF401773D443DB9204639490B220F
:1089F000FFF79CFF2823E372203437492E014FF004
:108A0000640801EB05250027022EB3D80B22294666
:108A10002046FFF78BFF57232D2006225A2163742F
:108A2000E3746376B31C84F80D80A073E173227441
:108A3000A27427756775A075E17522766383E8686F
:108A400030B102F0E8FDE061013620341035DBE79B
:108A50004FF4C410F7E7214B9D428BD86FF4027698
:108A6000AA19012A0FD81C4B03EB0213D9680191F4
:108A7000084602F0D0FD01990246204602B0BDE84A
:108A8000F04102F091BD05F155010902B1F5801FD9
:108A9000BFF470AF124B236003F1144303F52C13A2
:108AA00003F6023363600F4BC4F8FC314FF44463A8
:108AB000A3614FF40053A5F20B254FF48072A3601D
:108AC000094B6561E1602261E36104F12000D5E7B3
:108AD000F4BA0F001FBB0F00ACBB0F000801010070
:108AE0005546320A306FB10A29009A23F7B5654B13
:108AF00014460A689A420D4639D103F114434A6874
:108B000003F52C1303F602339A4230D1D1F8FC213D
:108B10005D4B9A422BD18B6823F4FF5323F01E0345
:108B20009B049B0CB3F5005F21D10B69B3F5807FEB
:108B30001DD1C86810F0FF0619D1CB69534A934282
:108B400005D0534A934215D0524A93420FD1A0F513
:108B50001833B3F5442F07D201234FF4807205F187
:108B60002001FBF7C7FD22E0B0F5183F1FD34FF0FF
:108B7000FF3021E001276772CB68B3F1102F1DD1C0
:108B800004223431684602F00FFD042205F1380159
:108B90000DEB020002F008FD009BB3F5742F03D12A
:108BA000019BB3F57E2F01D02772E0E7A772AB6976
:108BB000002B37D14FF4007003B0F0BDA3F5742241
:108BC000B2F5204F28D2E27A01F12007DAB9324A11
:108BD000934218D32B69B34215D90422B9196846B8
:108BE00002F0E2FC009BD02B14D10422311D0DEBCE
:108BF0000200394402F0D8FC264B019A9A424FF009
:108C000001030DD1E372E8682A6901233946A0F512
:108C1000A030A6E70836DDE7B3F5183FC7D3012338
:108C20002372A4E72268934207D041F263018B428A
:108C300000D80AB14FF0FF3323606B6941F2630241
:108C40009342B7D803F0070204EBD303012191400C
:108C50001A7B1142C8B204D16168024301311A7310
:108C60006160D4E900329A42A4D30120FBF724FDCD
:108C7000637A002B9ED0A37A002B9BD10123237211
:108C800098E700BF5546320A306FB10A4028A5ADBB
:108C90003C8263D629009A2300D80F004FF08053FE
:108CA000D3F83001082802D1D3F8343123B9A0F128
:108CB0000D0358425841704701207047094B01226B
:108CC00083F8D8200260BFF36F8FBFF34F8F064A3F
:108CD000904202D0043A904202D1002283F8D82078
:108CE000704700BFB0B300205070024042DF7047B1
:108CF00043DF704744DF704712DF704710B5134BF6
:108D0000134A5B68C3F3080373B9EFF310835BB9CD
:108D100010494B681B0607D58024C1F8844092F89F
:108D2000D8307BB14C60F8E792F8D83033B10146C7
:108D3000BDE810400848012201F094B8BDE8104099
:108D4000FFF7BCBFFFF7BAFF4C6010BD00ED00E0BD
:108D5000B0B3002000E100E0FD8C0F000D4B1822A5
:108D600002FB0033598A1A8A521A998A92B28A42AD
:108D700028BF0A46D9681423434303F1804303F50F
:108D80001C33C3F80016C3F80426034B03EB800022
:108D9000FFF7B4BFB0B300200470024007B54FF432
:108DA000405300205A68084B9A420AD18DF80700B8
:108DB0000DF10700FFF7A0FF9DF80700003818BF6E
:108DC000012003B05DF804FBDBE5B15107B5FFF707
:108DD000E5FF58B1002301A80193FFF78BFF01982D
:108DE000003818BF012003B05DF804FB4FF080434A
:108DF000D3F80C0400F00110A0F1011358425841BF
:108E0000F1E70000074BD3F8C024D10309D4064989
:108E10000648D1F8C010C3F8A017C3F8A427FFF77D
:108E20006DBF704700700240B0B300204870024030
:108E30000828F0B402D1F0BCFFF7E4BF0F4D104A90
:108E4000182141436E1800F59473695852F8234075
:108E5000F788B388DB1B9BB2A4B2A34228BF23468A
:108E6000142404FB0022C2F80017C2F80437054B93
:108E7000F0BC03EB8000FFF741BF00BFB0B30020A0
:108E8000007002402870024070470000014B8022B1
:108E90005A60704700E100E0024B8022C3F8842052
:108EA000704700BF00E100E0074BD3F80014D3F88F
:108EB00000240A43C3F800240022C3F858214FF4C9
:108EC0008002C3F8042370470070024070B58878B0
:108ED000404D00F07F0318220C26C4095A4306FBBC
:108EE00004228E882A44C6F30A061681CA7802F044
:108EF0000302012A29D00121374A01FA03F5D4B926
:108F000003F10C06B140C2F80413D2F8141503F5AE
:108F100094732943C2F8141542F823402E4BC3F82A
:108F2000180540F48070C3F80C05BFF36F8FBFF3D2
:108F30004F8F012014E002339940C2F80413D2F895
:108F400010352B43C2F81035E8E7082B09D04FF055
:108F5000E023D3F8F00D10F0010001D000BE002096
:108F600070BD1D4BDCB9B5F8D42012B18022C3F816
:108F70001C250022C3F85021D3F8002312F400125C
:108F800008BFC3F85421144B4FF44012C3F8042314
:108F9000D3F8142542F48072C3F81425BEE70022EA
:108FA000C3F82C21B5F8C82012B18022C3F81C25C3
:108FB000094BD3F8002312F4001208BFC3F8542160
:108FC000064AC3F80423D3F8102542F48072C3F88C
:108FD0001025A3E7B0B30020007002400008200075
:108FE0001D4B2DE9F041802201241C4DDFF87880D3
:108FF000C3F88420274604F10C03A21C07FA02F2EE
:1090000007FA03F31343C5F80833A30003F18043C1
:1090100003F51C330026182202FB04805E603146F3
:109020009E620134FBF77EF9082C4FF01802E2D162
:109030000B4BC5F808330B48C5F81C6531466E620A
:10904000AE64FBF76FF9044BC5F814758022C5F8C0
:1090500010755A60BDE8F08100E100E00070024048
:109060000008300070B40020B0B30020F7B51F46F0
:1090700001F07F0018231F4CCD090E4643430C21FD
:1090800001FB053104EB010C62500022ACF80470C6
:10909000ACF8062018B1F5B1FFF760FE18E017BB79
:1090A000154BD3F88034C3F3C0139D421BD0134833
:1090B000FFF724FE124B5B68C3F30803003B18BFA5
:1090C000012300933A463B463146384600F0B5FE50
:1090D000012003B0F0BD1C44A37A002BF8D0A57288
:1090E000FFF7A6FEF4E7002DD6D10648FFF706FEEF
:1090F000EEE700BFB0B300200070024050700240A5
:1091000000ED00E04C70024011F07F0008B507D17F
:109110000D4B01225A65BFF36F8FBFF34F8F08BD10
:109120000828F8D0084B41F48072C909C3F8182503
:10913000F1D1064B182202FB00339A7A002AEAD0BA
:109140009972FFF775FEE6E700700240B0B30020A9
:1091500011F0770F12D00A4B41F48072C3F80C154E
:10916000C3F80C25CA09C3F8181504BF01F594719A
:1091700043F82120BFF36F8FBFF34F8F704700BFBD
:1091800000700240174B0122002110B5C3F81425CE
:10919000C3F810250A468B0003F1804303F51C3306
:1091A000013108295A609A62F5D10E4B0E4C5A6271
:1091B0009A64C3F85821D3F80014D3F800240A4362
:1091C000C3F80024D3F80023C3F80823074AC3F8E0
:1091D00004230021DC222046FBF7A4F84023A382CD
:1091E000238110BD00700240B0B300200514C001FF
:1091F0002DE9F04FB24BB34AD3F80013002385B0EA
:109200001C4601201D4621FA03F6F6070BD552F83D
:10921000236046B100FA03F6344342F82350BFF30B
:109220006F8FBFF34F8F0133192BECD1E20706D5B7
:10923000FFF7A8FF00210122084600F0D5FD14F435
:10924000006FA14D08D09E4BD3F8A8369BB2A5F86D
:10925000D230012385F8D730A30221D5984ED6F815
:10926000143513F4807302D0FFF7CCFD0123D6F838
:109270001025D70540F1188195F8D7305BB1B5F8C6
:10928000D2200023012185F8D73092B200911846F0
:10929000882100F0D2FD01220321002000F094FD7E
:1092A000660228D5864BD3F8006406F4E062F00528
:1092B000C3F8002406D50122C3F82C250421002080
:1092C00000F082FD71050FD57D4B0122C3F8082502
:1092D0009A65D3F8002312F4001208BFC3F8542192
:1092E0004FF40012C3F80423B20504D5012205216E
:1092F000002000F069FD23022BD5714BD3F88014B8
:10930000C9B28DF80810D3F88424D2B28DF80920A0
:10931000D3F888048DF80A00D3F88C048DF80B007C
:10932000D3F890048DF80C00D3F894048DF80D0058
:10933000D3F898048DF80E00D3F89C348DF80F30D4
:109340004F0601D1052A04D0012202A9002000F015
:109350005EFD5E4B23405BB195F8D830002B40F0AA
:10936000AB804FF0E023D3F8F03DDE0700D500BE20
:10937000DFF85481DFF84891DFF858B147460026FE
:109380004FF0140A06F10C0324FA03F3D807F1B2E4
:1093900022D50AFB0693082ED3F808273B6853FA18
:1093A00082F33B604FF0180303FB0653D2B2D88818
:1093B00012FA80F080B2D88000F08E803889904216
:1093C00040F08A80DB88BA889BB29A4240F284805F
:1093D00011B95846FFF792FC0136092E07F118071C
:1093E000D0D13B4B2340002B5BD0354BD3F86C9452
:1093F000C3F86C94BFF36F8FBFF34F8F14F4806486
:1094000007D0D3F88044D3F880341906C4F3C014CD
:1094100070D54FF0000A2C4F00264FF0180B29FA98
:1094200006F3DA07F0B201D4CEB9C4B1244B14224A
:1094300002FB0633FA68D3F8083652FA83F2FA6070
:109440000BFB0652518A89B251FA83F39BB25382C5
:10945000538A398A9BB299424FD9FFF77FFC013674
:10946000082E07F11807DAD100241826012704F185
:10947000100329FA03F3DB07E0B203D464B9BAF1AD
:10948000000F09D006FB0452B8F80410D3889BB231
:1094900099423DD9FFF7CCFC0134082C08F118089B
:1094A000E5D105B0BDE8F08F002B7FF4F4AE4FF4AA
:1094B0000013C6F80833EEE6002385F8D83057E7E6
:1094C0000070024000710240B0B30020FCFB1F009E
:1094D000000400014C700240182303FB0653DA8895
:1094E000BA80DA8801230093002392B2184600F074
:1094F000A4FC71E74FF0010A8DE7528A0123009323
:10950000002340F0800192B2184600F096FCA6E7D6
:109510009772C1E7012813B5044600F0C380022802
:1095200059D0002855D1784BD3F80025002A50D1C6
:109530004FF48002C3F808234FF40062C3F80024FC
:10954000BFF36F8FBFF34F8FFFF7A8FB60B16F4B77
:10955000D3F8001C032269BB49F27531C3F8001C23
:10956000C3F8142DC3F8001C4FF08053D3F83031EA
:10957000082B0CD1654BD3F8001CC022E9B949F285
:109580007531C3F8001CC3F8142CC3F8001C5E4BE3
:109590000124C3F80045BFF36F8FBFF34F8FFFF770
:1095A00015FCB0B9FFF7FAFB50B102B0BDE81040AE
:1095B000FFF79CBBC3F8142DD6E7C3F8142CE6E7DD
:1095C0004FF08043C3F80001D3F800210192019AC3
:1095D0001C6002B010BD4C4CD4F804351BB1FFF731
:1095E000F5FB0028F5D1D4F800341B05FBD54FF46A
:1095F0000063C4F80034BFF36F8FBFF34F8F4FF099
:109600008053D3F83031082B0CD1404BD3F8001CD9
:1096100000293FD149F27532C3F8002CC3F8141C5D
:10962000C3F8002CFFF73AFB58B1384BD3F8001CB5
:10963000A1BB49F27532C3F8002CC3F8141DC3F85E
:10964000002C4FF08053D3F83031082B2E4B0AD129
:1096500040F2E372C3F800284022C3F80428BFF3A5
:109660006F8FBFF34F8F80220121C3F81C25C3F8F1
:109670000413274BC3F884215A60FFF7A7FB002887
:10968000FBD0214B0122C3F80425BFF36F8FBFF33A
:109690004F8F9EE70022C3F8142CC3E70022C3F8C3
:1096A000142DCEE7184BD3F80025002A91D00022C4
:1096B000C3F80425BFF36F8FBFF34F8F1449802089
:1096C000C1F88400D3F80013C3F80813C3F80025C9
:1096D000BFF36F8FBFF34F8FFFF760FB78B1FFF7DA
:1096E00007FB0C4B5A68C2F30802003A18BF01226C
:1096F0000221002002B0BDE8104000F065BB4FF031
:1097000080435C60EDE700BF0070024000E006406F
:1097100000E100E000ED00E00A44034690B2884218
:1097200002D39A89824202D25A89104480B2704789
:1097300082888A4210B504D884898B1A9BB29C42D5
:1097400003D243891A44891A8BB2038210BD93084D
:1097500013B501EB8303044699420BD112F00302C7
:1097600006D0002301A8019301F01EFF019B236096
:1097700002B010BD51F8040B2060EDE72DE9F04375
:1097800085B01446BDF83050AB4238BF4289A3EBD8
:1097900005091FFA89F938BFA9EB0209828838BF89
:1097A0001FFA89F94A4588460746194605D2FFF748
:1097B000BFFF058AB0F80490ADB2B9F1000F1FD019
:1097C000A14528BFA146BC88AC421DD9FA889DF8A6
:1097D00034003968661BA9EB04042C44B3B214FBB3
:1097E00002F416FB02F60128B6B2A4B202FB051180
:1097F00016D099450BD802FB09F2404601F0D4FE81
:10980000484605B0BDE8F0832D1BADB2DCE732461B
:10981000404601F0C9FE3968224608EB0600EDE734
:10982000994506D819FB02F292B24046FFF78FFF26
:10983000E6E726F00305ADB22A4640460191FFF760
:1098400086FF16F0030628D001990D44C6F10401E5
:1098500089B2A1424FF0000328BF2146641A039346
:1098600003ABA4B2A8191A4685420CD13B68013E4D
:10987000164419448B420BD1039BC8F80030002CCE
:10988000BED02246D1E715F801CB03F801CBEBE7B8
:1098900013F8012B06F8012FECE73968EFE713B551
:1098A000930800EB8303984209D112F0030204D01D
:1098B0000B68019301A901F077FE02B010BD0C689E
:1098C00040F8044BEFE770B59A42A2EB03041D4643
:1098D00038BF4389A4B238BFE41A838838BFA4B222
:1098E000A3420E46114602D2FFF722FF848874B1CC
:1098F0008288AA4208D9C2880168304602FB051155
:1099000001F052FE012070BDAD1AADB2F1E7204664
:10991000F9E72DE9F0430746B0F80E908588048AF0
:109920001646C288007A85B01FFA89F9A4B288BBAE
:10993000A145A9EB040038BF7C8980B23CBF001B65
:1099400080B2281A80B2864228BF06464C46AC42F6
:1099500028D2A5EB0408751B386825441FFA88FC3B
:1099600015FB02F518FB02F8012B1FFA88F8ADB2BF
:1099700002FB040022D0664517D8724301F014FEA2
:10998000324649463846FFF7C7FEF881304605B0F3
:10999000BDE8F083AE4221BF761B02FB0611A14653
:1099A0002E46D3E7641BA4B2D1E74246009101F0F2
:1099B000FBFD009938682A464144DFE7664505D833
:1099C00016FB02F292B2FFF76AFFD9E728F0030410
:1099D000A4B22246CDE90001FFF761FF18F00308A9
:1099E000019929D0C8F104039BB2AB4200980A68E0
:1099F000039228BF2B46013CED1A0DF10C0C2044BC
:109A0000ADB244466246013C1CF801EB00F801EFA0
:109A100014F0FF04F7D13868904408EB0304421EA9
:109A2000A04504D11844002DAAD02A46CBE718F847
:109A300001CB02F801CFF3E73868F4E7B2F5004F45
:109A400010D882805200C38092B29DF80030037219
:109A5000531E838152420023C381016042810382ED
:109A60000120704700207047C189028A89B292B2F2
:109A70009142A1EB020338BF428980889BB23CBF70
:109A80009B1A9BB2984228BF18467047C289038A26
:109A900092B29BB2D31A58425841704710B5C1894F
:109AA000028A848889B292B2914238BF4089A1EB80
:109AB00002039BB23CBF1B1A9BB2E01A80B210BDDE
:109AC00038B5C289038A04469BB292B2FFF7FBFE07
:109AD000218A054682B289B22046FFF71DFE208208
